S01700004763634170706C69636174696F6E312E737265635B
S11300000C9434000C9451000C9451000C94510045
S11300100C9451000C9451000C9451000C94510018
S11300200C9451000C9451000C9451000C94510008
S11300300C9451000C9451000C9451000C945100F8
S11300400C9451000C9451000C948A050C945100AA
S11300500C9451000C9451000C9451000C945100D8
S11300600C9451000C94510011241FBECFEFD8E022
S1130070DEBFCDBF11E0A0E0B1E0ECE8FCE002C0DF
S113008005900D92AC34B107D9F721E0ACE4B1E0AE
S113009001C01D92A43BB207E1F70E949A010C949F
S11300A044060C9400009BB19F70282F207F922B54
S11300B09BB995B19D7F95B995B1916095B935E09E
S11300C03A95F1F7000095B19E7F95B9EFE1F3E021
S11300D03197F1F700C000002BB1F0E18F9FC00110
S11300E01124922F9F70892B8BB985B1816085B9BA
S11300F035E03A95F1F7000085B18E7F85B98FE33D
S11301009FE10197F1F700C0000008959BB19F7033
S1130110282F207F922B9BB995B1926095B995B108
S1130120916095B935E03A95F1F7000095B19E7F5D
S113013095B9EFE1F3E03197F1F700C000002BB17E
S1130140F0E18F9FC0011124922F9F70892B8BB9EE
S113015085B1816085B935E03A95F1F7000085B144
S11301608E7F85B98FE39FE10197F1F700C000000E
S113017008958FEF8AB984B1816084B984B18260B3
S113018084B92FEF89EF90E0215080409040E1F74F
S113019000C0000085B18E7F85B983E30E945300BF
S11301A08FE891E00197F1F700C0000082E30E941C
S11301B053008FE891E00197F1F700C0000088E256
S11301C00E9453008FE891E00197F1F700C000000E
S11301D08CE00E9453008FE891E00197F1F700C092
S11301E0000081E00E9453008FE891E00197F1F74D
S11301F000C0000086E00E9453008FE891E0019760
S1130200F1F700C0000082E00E9453008FE891E003
S11302100197F1F700C0000088E20E9453008FE8C4
S113022091E00197F1F700C000008CE00E945300B8
S11302308FE891E00197F1F700C0000086E00E948A
S113024053008FE891E00197F1F700C0000081E0CE
S11302500E9453008FE891E00197F1F700C000007D
S11302608FE39FE10197F1F700C000000895CF9359
S1130270DF9300D000D0CDB7DEB790E8998390EC3F
S11302809A8394E99B8394ED9C83E82FF0E0319763
S113029081E090E08C0F9D1FE80FF91F8081860F8D
S11302A081500E9453008FE891E00197F1F700C05C
S11302B000000F900F900F900F90DF91CF91089551
S11302C00F931F93CF93DF938C01C0E0D0E003C062
S11302D00E9486002196F801EC0FFD1F8081811198
S11302E0F7CFDF91CF911F910F91089581E00E9484
S11302F053008FE39FE10197F1F700C0000080E80D
S11303000E9453008FE39FE10197F1F700C00000C2
S113031008959093C5008093C40088E18093C10040
S113032086E08093C2000895E1ECF0E0808180686B
S113033080830895CF93DF93CDB7DEB7CA52D340FD
S11303400FB6F894DEBF0FBECDBF82E1E5E1F1E068
S1130350DE01179601900D928A95E1F782E1E7E2BA
S1130360F1E0DE015F9601900D928A95E1F782E15A
S1130370E9E3F1E0DE01D79601900D928A95E1F769
S1130380FE01E55AFF4F84E6DF01282F1D922A95CE
S1130390E9F7EC59FF4FDF01282F1D922A95E9F761
S11303A0EC59FF4FDF01282F1D922A95E9F7EC59EC
S11303B0FF4FDF01282F1D922A95E9F7EC59FF4FD3
S11303C0DF01282F1D922A95E9F7EC59FF4FDF0131
S11303D01D928A95E9F70E94B90087E690E00E9491
S11303E0890178940E94940117B888B18E6088B905
S11303F0CE010196C95EDC4F99838883C751D340EF
S11304009E01275E3F4FC75EDC4F39832883C95165
S1130410D340285E3F4FC55EDC4F39832883CB51E0
S1130420D3402D523109C35EDC4F39832883CD512B
S1130430D340AE01445E5F4FC15EDC4F59834883B5
S1130440CF51D340485E5F4FCF5DDC4F5983488323
S1130450C152D3404D525109CD5DDC4F598348837D
S1130460C352D340BE01615E7F4FCB5DDC4F7983C5
S11304706883C552D340685E7F4FC95DDC4F798382
S11304806883C752D34000E010E0CC24C394D12C3D
S1130490EE24E394F12C812C912CA12CB12CC75D7A
S11304A0DC4F19821882C952D340242E352E422E95
S11304B0532E682E792E8091B2019091B301019749
S11304C009F0A0C20FC0FC013797DC01A25BBE4F4C
S11304D02C9149E450E04C0F5D1FE40FF51F20837D
S11304E0019602C087E090E08831910564F36B9631
S11304F01FAE6B97BE01695F7F4FCE01875B9F4F35
S11305000E94E505892B09F0D2C060E071E08EE419
S113051091E00E94F505BC01CE018D549D4F0E94CF
S1130520EE0563E071E08EE491E00E94F505BC0104
S1130530CE018B519D4F0E94EE05C954DD4F888139
S1130540C75BD24090E0C0979C01220F331F880FF5
S1130550991F880F991F880F991F820F931FC854E2
S1130560DD4F2881C85BD24030E020533109820F2F
S1130570931FC751DD4F2881C95ED24030E020531C
S11305803109A901440F551F220F331F220F331FB6
S1130590220F331F240F351FC651DD4F4881CA5E19
S11305A0D24050E040535109240F351FC75DDC4F42
S11305B048815981C952D340440F551FEBE5F0E0FF
S11305C0EC0FFD1FE40FF51F91838083EFEBF0E048
S11305D0EC0FFD1FE40FF51F3183208360E070E012
S11305E080E090E0FB01EE0FFF1FABE5B0E0AC0F45
S11305F0BD1FEA0FFB1F20813181820F931F6F5FA4
S11306007F4F6233710549F0FB01EE0FFF1FEA0FC4
S1130610FB1F20813181232B29F70E94BD05CB01CB
S11306204AE0BE016F5F7F4F0E940F0660E070E0FA
S113063080E090E0FB01EE0FFF1F2FEB30E02C0F6A
S11306403D1FE20FF31F20813181820F931F6F5FE3
S11306507F4F6233710569F0FB01EE0FFF1F4FEB13
S113066050E04C0F5D1FE40FF51F20813181232BD7
S113067009F70E94BD05CB014AE0BE016C5F7F4FC4
S11306800E940F06C75DDC4F88819981C952D3400F
S11306900196C75DDC4F99838883C952D340C297C2
S11306A031F4C75DDC4F19821882C952D340BE01B0
S11306B0615E7F4FCE01875B9F4F0E94E505892BCA
S11306C009F0C1C060E071E08EE491E00E94F5059C
S11306D0BC01CE018D549D4F0E94EE0563E071E094
S11306E08EE491E00E94F505BC01CE018B519D4F33
S11306F00E94EE05C954DD4F8881C75BD24090E06B
S1130700C0979C01220F331F880F991F880F991FD0
S1130710880F991F820F931FC854DD4F2881C85B2F
S1130720D24030E020533109820F931FC751DD4F6F
S11307302881C95ED24030E020533109A901440F19
S1130740551F220F331F220F331F220F331F240F75
S1130750351FC651DD4F4881CA5ED24050E0405338
S11307605109240F351FA501440F551FE3E2F1E0A1
S1130770EC0FFD1FE40FF51F91838083E7E8F1E0A0
S1130780EC0FFD1FE40FF51F3183208360E070E060
S113079080E090E0FB01EE0FFF1FA3E2B1E0AC0F9D
S11307A0BD1FEA0FFB1F20813181820F931F6F5FF2
S11307B07F4F6233710549F0FB01EE0FFF1FEA0F13
S11307C0FB1F20813181232B29F70E94BD05CB011A
S11307D04AE0BE01675E7F4F0E940F0660E070E052
S11307E080E090E0FB01EE0FFF1F27E831E02C0FC3
S11307F03D1FE20FF31F20813181820F931F6F5F32
S11308007F4F6233710569F0FB01EE0FFF1F47E86C
S113081051E04C0F5D1FE40FF51F20813181232B24
S113082009F70E94BD05CB014AE0BE01645E7F4F1B
S11308300E940F065FEFA51AB50A82E3A816B10459
S113084011F4A12CB12CBE01695C7F4FCE01875BF2
S11308509F4F0E94E505892B09F0C1C060E071E05B
S11308608EE491E00E94F505BC01CE018D549D4FAC
S11308700E94EE0563E071E08EE491E00E94F505CC
S1130880BC01CE018B519D4F0E94EE05C954DD4F32
S11308908881C75BD24090E0C0979C01220F331F30
S11308A0880F991F880F991F880F991F820F931F14
S11308B0C854DD4F2881C85BD24030E02053310951
S11308C0820F931FC751DD4F2881C95ED24030E0AB
S11308D020533109A901440F551F220F331F220F42
S11308E0331F220F331F240F351FC651DD4F48819C
S11308F0CA5ED24050E040535109240F351FA40171
S1130900440F551FEBEEF1E0EC0FFD1FE40FF51F54
S113091091838083EFE4F2E0EC0FFD1FE40FF51FF9
S11309203183208360E070E080E090E0FB01EE0F13
S1130930FF1FABEEB1E0AC0FBD1FEA0FFB1F208120
S11309403181820F931F6F5F7F4F6233710549F0CE
S1130950FB01EE0FFF1FEA0FFB1F20813181232BC8
S113096029F70E94BD05CB014AE0BE016F5C7F4FB1
S11309700E940F0660E070E080E090E0FB01EE0F63
S1130980FF1F2FE432E02C0F3D1FE20FF31F2081E5
S11309903181820F931F6F5F7F4F6233710569F05E
S11309A0FB01EE0FFF1F4FE452E04C0F5D1FE40FFD
S11309B0F51F20813181232B09F70E94BD05CB014E
S11309C04AE0BE016C5C7F4F0E940F065FEF851A00
S11309D0950A82E38816910411F4812C912C1092CB
S11309E04D0110924C011092B3011092B20180E0BB
S11309F090E005C0FC01E25BFE4F10820196823359
S1130A009105C4F326B1227030E086B1847090E081
S1130A10E216F30641F12115310521F50F5F1F4F51
S1130A200330110511F400E010E0A801440F551F34
S1130A30E7E1F3E0EC0FFD1FE40FF51F6080718028
S1130A40EDE1F3E0EC0FFD1FE40FF51F4080518052
S1130A50E3E2F3E0EC0FFD1FE40FF51F208031808B
S1130A60790101C07901C816D90629F1009711F559
S1130A700150110910F402E010E09801220F331F15
S1130A80E7E1F3E0EC0FFD1FE20FF31F60807180DC
S1130A90EDE1F3E0EC0FFD1FE20FF31F4080518006
S1130AA0E3E2F3E0EC0FFD1FE20FF31F208031803F
S1130AB06C0101C06C010E947601822D932D0E946D
S1130AC0600161E082E00E94370186E091E00E94CB
S1130AD06001862D972D0E9460018FED0E94860093
S1130AE08BE091E00E9460018EE091E00E94600141
S1130AF0842D952D0E94600183E191E00E946001A4
S1130B00BFEF21EE34E0B15020403040E1F700C0A7
S1130B100000D1CC1F920F920FB60F9211248F9325
S1130B209F93EF93FF938091C6008D3759F41092F1
S1130B304D0110924C0181E090E09093B3018093B9
S1130B40B20112C08D3781F0E0914C01F0914D015A
S1130B50E25BFE4F808380914C0190914D010196A0
S1130B6090934D0180934C01FF91EF919F918F9150
S1130B700F900FBE0F901F90189597FB072E16F439
S1130B80009407D077FD09D00E94D10507FC05D059
S1130B903EF4909581959F4F0895709561957F4F90
S1130BA00895AA1BBB1B51E107C0AA1FBB1FA617B0
S1130BB0B70710F0A61BB70B881F991F5A95A9F702
S1130BC080959095BC01CD010895FB01DC018D91C8
S1130BD0019080190110D9F3990B0895FB01DC01F0
S1130BE001900D920020E1F70895FB0151915523E6
S1130BF0A9F0BF01DC014D9145174111E1F759F40A
S1130C00CD010190002049F04D9140154111C9F3E7
S1130C10FB014111EFCF81E090E001970895BB27DC
S1130C204A3031F4992322F4BDE2909581959F4F87
S1130C300C941B06BB27FB015527AA27880F991F75
S1130C40AA1FA41710F0A41B83955051B9F7A05DF7
S1130C50AA3308F0A95DA193009779F7B111B19374
S1130C601192CB010C943406DC01FC01672F7191C5
S1130C707723E1F7329704C07C916D93708362917E
S10F0C80AE17BF07C8F30895F894FFCF27
S1130C8C72650074790074656D3A004320006875D0
S1130C9C6D3A00250034433A37353A32353A30361A
S1130CAC3A41313A45370041433A30423A46423AA6
S1130CBC43453A41443A31460045433A46413A4267
S10F0CCC433A35463A38343A41390000C6
S9030000FC
